:060000000A128A11122809
:10000800FE00030EF9000408FA000A08FB00831238
:1000180003137F08FC000A128A111B280A128A118E
:100028001528A001A10183010A128A1198288316B4
:1000380003130C1D4E28831203130C1D4E280C119C
:100048008E018F01E830F0000330F1001608F3014B
:10005800F3071508F201F2070A128A115A200A1248
:100068008A11710883120313A101A1077008A00166
:10007800A00703300310A00DA10DFF3E031D3E286D
:1000880005080139F8000130F80605087806FE3938
:10009800780685007C088312FF007B088A007A08AE
:1000A8008400790E8300FE0E7E0E0900F501F6012C
:1000B8007108700403199128F701F70AF11B7028D9
:1000C80001300310F00DF10DFF3E031D65280130CE
:1000D800F4007408F707622801300310F50DF60DD7
:1000E800FF3E031D712871087302031D7D287008E7
:1000F8007202031C86287008F2027108031CF303BD
:10010800F302751401300310F10CF00CFF3E031DCF
:1001180087280130F702031D70287608F101F107DE
:100128007508F001F00708000430831603138700F0
:10013800831203139016101697111715971017149A
:100148008E018F010C11831603130C150B178B17D7
:08015800831203131014AF28F9
:02400E0071FF40
:00000001FF
