:060000000A128A11FC2F18
:100BE800F801F9010F30F0000030F1000A128A1103
:100BF80013260A128A11831203131F151F19022EB6
:100C08001E08F901F907831603131E08F801F807EF
:100C18007908F701F7077808F601F6070800F201E6
:100C2800F30171087302031D1B2E7008720203186A
:100C38000800F401F5017508803AFF0080307F0252
:100C4800031D282E7D30740203183B2E0130F40753
:100C58000318F50A0030F5077508803AFF00803060
:100C68007F02031D392E7D307402031C2A2E0130A9
:100C7800F2070318F30A0030F307152E0030831229
:100C88000313AB000030AA000030A9000030A80010
:100C9800201C622E2408A807250803110318013E0A
:100CA800031DA907260803110318013E031DAA07FF
:100CB800270803110318013E031DAB070130FA0092
:100CC8000310A40DA50DA60DA70DFA0B642E013077
:100CD8000310A30CA20CA10CA00CFF3E031D6C2E4C
:100CE8002308220421042004031D4C2E2B08A300F2
:100CF8002A08A2002908A1002808A0000800F60177
:100D0800F31F8D2EF209F309F20A0319F30AF6010B
:100D1800F60AF11F942EF009F109F00A0319F10AF5
:100D2800710870040319C12EF501F50AF11BA82EEC
:100D380001300310F00DF10DFF3E031D9D2E013013
:100D4800F4007408F5079A2E71087302031DAE2E7D
:100D580070087202031CB62E7008F2027108031C98
:100D6800F303F30201300310F10CF00CFF3E031DF6
:100D7800B72E0130F502031DA82E76080319C92ED7
:100D8800F209F309F20A0319F30A7308F101F107EA
:100D98007208F001F0070800F601F11FDA2EF009D9
:100DA800F109F00A0319F10AF601F60AF31FE52E14
:100DB800F209F309F20A0319F30A0130F40074087E
:100DC800F606F701F8017108700403191C2FF501E4
:100DD800F50AF11BFB2E01300310F00DF10DFF3E5B
:100DE800031DF02E0130F4007408F507ED2E0130D4
:100DF8000310F70DF80DFF3E031DFC2E710873025A
:100E0800031D082F70087202031C112F7008F202CC
:100E18007108031CF303F302771401300310F10C7B
:100E2800F00CFF3E031D122F0130F502031DFB2EAF
:100E380076080319242FF709F809F70A0319F80A9D
:100E48007808F101F1077708F001F0070800003091
:100E580083120313B8000030B7000030B60000302A
:100E6800B500BB0183160313860189010130850093
:100E78009F151F159F141F10831203139F121F1213
:100E88009F11831603131F13831203139F131F1736
:100E9800831603139F17831203131F14860103304D
:100EA80089000A128A11F4250A128A117608831217
:100EB8000313AC007708AD00AE01AF012F08A30003
:100EC8002E08A2002D08A1002C08A0000030A700C1
:100ED8000030A6000030A5006430A4000A128A1170
:100EE80042260A128A11831203132308B800220823
:100EF800B7002108B6002008B5000130AC0000306A
:100F0800AD000030AE000030AF003508B000360844
:100F1800B1003708B2003808B3000A300310B30C28
:100F2800B20CB10CB00CFF3E031D922F3008AC0779
:100F380031080318310FA12FA22FAD07320803186B
:100F4800320FA72FA82FAE0733080318330AAF07AD
:100F580001300310AF0CAE0CAD0CAC0CFF3E031D02
:100F6800AD2F2C08B4003408BB000A30F000003064
:100F7800F1003B08AC00AD012C08F2002D08F3008D
:100F88000A128A11D0260A128A11700883120313D2
:100F9800AE002E08B9000A30F0000030F1003B081E
:100FA800AC00AD012C08F2002D08F3000A128A11DA
:100FB80083260A128A11700883120313AE002E08C2
:100FC800BA000330890039088600013089000230F0
:100FD800F0000030F1000A128A1113260A128A1151
:100FE80003308312031389003A0886000230542F15
:080FF80083010A128A112B2F5C
:02400E0071FF40
:00000001FF
