:060000000A128A11FC2F18
:100BD400F801F9010F30F0000030F1000A128A1117
:100BE40009260A128A11831203131F151F19F82DDF
:100BF4001E08F901F907831603131E08F801F80704
:100C04007908F701F7077808F601F6070800F201FA
:100C1400F30171087302031D112E70087202031888
:100C24000800F401F5017508803AFF0080307F0266
:100C3400031D1E2E7D3074020318312E0130F4077B
:100C44000318F50A0030F5077508803AFF00803074
:100C54007F02031D2F2E7D307402031C202E0130D1
:100C6400F2070318F30A0030F3070B2E0030831247
:100C74000313AB000030AA000030A9000030A80024
:100C8400201C582E2408A807250803110318013E28
:100C9400031DA907260803110318013E031DAA0713
:100CA400270803110318013E031DAB070130FA00A6
:100CB4000310A40DA50DA60DA70DFA0B5A2E013095
:100CC4000310A30CA20CA10CA00CFF3E031D622E6A
:100CD4002308220421042004031D422E2B08A30010
:100CE4002A08A2002908A1002808A0000800730807
:100CF4007204710470040319BC2EF901F90AF31B80
:100D0400912E0130F8000310F00DF10DF20DF30DEA
:100D1400F80B852E0130F8007808F907812E730846
:100D24007702031D9F2E72087602031D9F2E710801
:100D34007502031D9F2E70087402031CAF2E7008E9
:100D4400F4027108031C710FF5027208031C720F80
:100D5400F6027308031C730FF70201300310F30C3F
:100D6400F20CF10CF00CFF3E031DB02E0130F90221
:100D7400031D912E7708F3007608F2007508F10040
:100D84007408F00008000030FC000030FB00003064
:100D9400FA000030F9007308720471047004031936
:100DA4001A2FFD01FD0AF31BE52E0130F800031094
:100DB400F00DF10DF20DF30DF80BD92E0130F80002
:100DC4007808FD07D52E0130F8000310F90DFA0D4F
:100DD400FB0DFC0DF80BE72E73087702031DFC2EA8
:100DE40072087602031DFC2E71087502031DFC2E89
:100DF40070087402031C0D2F7008F4027108031CA0
:100E0400710FF5027208031C720FF6027308031CBB
:100E1400730FF702791401300310F30CF20CF10C88
:100E2400F00CFF3E031D0E2F0130FD02031DE52EC5
:100E34007C08F3007B08F2007A08F1007908F000DE
:100E44000800003083120313B7000030B6000030EE
:100E5400B5000030B4000030BD000030BC000030EC
:100E6400BB000030BA0083160313860101308500ED
:100E74009F151F159F141F10831203139F121F1217
:100E84009F11831603131F13831203139F131F173A
:100E9400831603139F17831203131F1486010A1268
:100EA4008A11EA250A128A11760883120313AC0008
:100EB4007708AD00AE01AF012F08A3002E08A200F1
:100EC4002D08A1002C08A0000030A7000030A600C7
:100ED4000030A5006430A4000A128A1138260A12D0
:100EE4008A11831203132308B7002208B6002108CD
:100EF400B5002008B4000130AC000030AD00003073
:100F0400AE000030AF003408B0003508B100360838
:100F1400B2003708B3000A300310B30CB20CB10CA2
:100F2400B00CFF3E031D8E2F3008AC0731080318A8
:100F3400310F9D2F9E2FAD0732080318320FA32FB8
:100F4400A42FAE0733080318330AAF070130031088
:100F5400AF0CAE0CAD0CAC0CFF3E031DA92F2F083B
:100F6400BD002E08BC002D08BB002C08BA000030C0
:100F7400F3000030F2000030F1000A30F0003D08C8
:100F8400F7003C08F6003B08F5003A08F4000A12A2
:100F94008A11C5260A128A11700883120313AC0041
:100FA4002C08B8000030F3000030F2000030F100EB
:100FB4000A30F0003D08F7003C08F6003B08F50055
:100FC4003A08F4000A128A1179260A128A11700862
:100FD40083120313AC002C08B9003808AC000330AA
:100FE4000310AC0DFF3E031DF22F03102C0D39042A
:0C0FF4008600512F83010A128A11232F5E
:02400E0071FF40
:00000001FF
