:060000000A128A11EF2F25
:100E0A00F300F201731C0D2F7008F1007108F2074C
:100E1A000310F00D0310F30CF308031D072F7208DB
:100E2A0008007E088A007F08820016270A128A11A3
:100E3A008000840A04087D0603190034FF0A031996
:100E4A00FE0A1A2F323400347D340034FA34003466
:100E5A0077340134DB340134213400345334003420
:100E6A00A6340034F93400343B34013419340034E4
:100E7A003F3400347E340034BD340034EF3400345F
:100E8A007C3452343E3483120313C801C7018316DB
:100E9A000313870106309F0003308900831203136E
:100EAA00921412109715171512157910091879143A
:100EBA0079187819742F0230831203134802031C1D
:100ECA00692FC101C201702F4808013EC1000030DC
:100EDA0003180130C2004108F4007408C8007811F0
:100EEA0079187815781083120313891878147818EA
:100EFA00F818932F0430831203134702031C882F18
:100F0A00C301C4018F2F4708013EC30000300318F4
:100F1A000130C4004308F4007408C700F8107818B8
:100F2A00F8148312031348083E3E84008313000812
:100F3A00831603139200831203134708F400013047
:100F4A000310F40DFF3E031DA52F0A30F5007508A6
:100F5A00F00048080A128A1105270A128A11203E4F
:100F6A007407F600760884008313000883120313BB
:100F7A00C500840A0008C6004608F5004508F400C2
:100F8A000310F50CF40C0310F50CF40CFF30740587
:100F9A00F60000307505F700760895007708960088
:100FAA004608F5004508F4000310F50CF40C741C0F
:100FBA00E22F831203139716E52F83120313971256
:100FCA00451CEB2F8312031317165A2F8312031390
:100FDA0017125A2FF80183134130FD000730FE0023
:100FEA002730FF00203084000A128A111A27830151
:060FFA000A128A11482FC3
:02400E0071FF40
:00000001FF
